S01800006275696C642F74657374747474747474312E733139F4
S3152000000037C10120EF10905E971200009382C26CD8
S31520000010970000009380C00173901234374300008C
S31520000020130303887310033073002030EF20800001
S315200000306F000000130101FF2326110023248100F5
S3152000004013040101B7170140938707403797666667
S315200000501307878823A0E700B71701409387C74077
S3152000006003A70700B71701409387C7401367F70018
S3152000007023A0E700B71701409387C74003A70700CF
S31520000080B71701409387C7401377F7F023A0E700FF
S31520000090B72701409387078003A70700B7270140AA
S315200000A093870780137707FF23A0E700B727014030
S315200000B09387078003A70700B72701409387078008
S315200000C01367270023A0E700B7170140938747400F
S315200000D0372722221307272223A0E700B71701403C
S315200000E09387C74083A60700B71701409387C74069
S315200000F03707FFFF1307F70F33F7E60023A0E700C4
S31520000100B72701409387C78003A70700B727014079
S315200001109387C7801377E7FF23A0E700130000002B
S315200001208320C100032481001301010167800000A0
S31520000130130101FE232E1100232C8100130401023A
S315200001402326A4FE0327C4FE9307070093973700B0
S31520000150B387E700939747001387F7FFB7F700E0C9
S3152000016093870701130607009306000023A0C70004
S3152000017023A2D700B7F700E09387870093060000F5
S315200001801307000023A0D70023A2E700B7F700E05B
S315200001901307F00023A0E700130000008320C1010D
S315200001A0032481011301010267800000130101FE6F
S315200001B0232E1100232C5100232A81002328E1001D
S315200001C02326F10013040102B72701409387C78035
S315200001D003A70700B72701409387C7801347170057
S315200001E023A0E700B7F700E09387470023A0070086
S315200001F0130000008320C1018322810103244101D1
S31520000200032701018327C100130101027300203057
S31520000210130101FF23261100232481001304010169
S31520000220B7F700E023A00700130000008320C100D9
S31520000230032481001301010167800000130101FFDF
S31520000240232611002324810013040101B7E700E0CF
S315200002509387071083A60700B7E700E09387071068
S315200002603717000033E7E60023A0E700B7E700E0F2
S315200002709387071083A60700B7E700E09387071048
S315200002803707C00333E7E60023A0E700B70701409E
S315200002909387870083A60700B707014093878700C7
S315200002A03707FFFF33F7E60023A0E700B707014033
S315200002B09387870083A60700B707014093878700A7
S315200002C0373700001307373333E7E60023A0E7006C
S315200002D0B70701409387074003A70700B7070140E8
S315200002E0938707401367F70023A0E700B70701406D
S315200002F09387874003A70700B70701409387874066
S315200003001367F70023A0E700B70701409387C7408C
S3152000031003A70700B70701409387C7401367F70075
S3152000032023A0E700130000008320C10003248100DE
S315200003301301010167800000130101F4232E110A25
S31520000340232C510AF3223000232A510A2328610A3A
S315200003502326710A2324810A2322A10A2320B10AF3
S31520000360232EC108232CD108232AE1082328F108AB
S3152000037023260109232411092322C1092320D10977
S31520000380232EE107232CF107272E0104272C110405
S31520000390272A21042728310427264104272451040B
S315200003A02722610427207104272EA102272CB102BF
S315200003B0272AC1022728D1022726E1022724F10273
S315200003C02722010327201103272EC101272CD10123
S315200003D0272AE1012728F1011304010CEF00C00EA2
S315200003E093070500A307F4F4B71701409387C74086
S315200003F003A70700B71701409387C7401377F7F085
S3152000040023A0E700B70701409387474103A70700CA
S31520000410B7070140938747411367F70023A0E700FA
S31520000420130000008320C10B8322410B73903200FE
S315200004308322810B0323010B8323C10A0324810A10
S315200004400325410A8325010A0326C109832681093A
S3152000045003274109832701090328C1088328810826
S31520000460032E4108832E0108032FC107832F8107FE
S315200004700720C10587208105072141058721010520
S315200004800722C1048722810407234104872301040C
S315200004900725C103872581030726410387260103F4
S315200004A00727C102872781020728410287280102E0
S315200004B0072EC101872E8101072F4101872F0101B8
S315200004C01301010C73002030130101FD23261102B4
S315200004D02324810213040103B75700209387C70EF4
S315200004E003A6070083A6470003A78700232CC4FC86
S315200004F0232ED4FC2320E4FE83A7C7002322F4FE68
S31520000500930710002326F4FE6F0080070325C4FE00
S31520000510EF004012232A04FC6F000001832744FDCC
S3152000052093871700232AF4FC032744FD9307703E84
S31520000530E3D6E7FEEF0080072324A4FE832784FE6C
S31520000540638A070213050000EF00C00E8327C4FE4E
S315200005509387F7FF032784FE1307F7FF9397270058
S31520000560938707FFB3878700B387E70083C787FE94
S315200005706F0080028327C4FE938717002326F4FE8C
S315200005800327C4FE93074000E3F2E7F813050000B3
S31520000590EF00400A9307F00F138507008320C1025E
S315200005A0032481021301010367800000130101FE69
S315200005B0232E1100232C810013040102B7170140BA
S315200005C09387874083D707002317F4FE8357E4FEDB
S315200005D093F7170063960700930710006F004004F7
S315200005E08357E4FE93F727006396070093072000BE
S315200005F06F0000038357E4FE93F7470063960700D6
S31520000600930730006F00C0018357E4FE93F78700FD
S3152000061063960700930740006F0080009307000051
S31520000620138507008320C1010324810113010102E0
S3152000063067800000130101FE232E1100232C810068
S31520000640130401022326A4FEB71701409387C7404F
S3152000065083D707001397070113570701B7170140E0
S315200006609387C7401367070F13170701135707010F
S315200006702390E7000327C4FE93074000630AF70C84
S315200006800327C4FE9307400063ECE70E0327C4FE4E
S31520000690930730006306F7080327C4FE930730004C
S315200006A063E0E70E0327C4FE93071000630AF700F2
S315200006B00327C4FE93072000630CF7026F00400C4B
S315200006C0B71701409387C74083D7070013970701C1
S315200006D013570701B71701409387C7401377F7FED3
S315200006E013170701135707012390E7006F004009EE
S315200006F0B71701409387C74083D707001397070191
S3152000070013570701B71701409387C7401377F7FDA3
S3152000071013170701135707012390E7006F004006C0
S31520000720B71701409387C74083D707001397070160
S3152000073013570701B71701409387C7401377F7FB75
S3152000074013170701135707012390E7006F00400393
S31520000750B71701409387C74083D707001397070130
S3152000076013570701B71701409387C7401377F7F749
S3152000077013170701135707012390E7001300000002
S31520000780130000008320C10103248101130101020B
S3152000079067800000130101FD232611022324810214
S315200007A013040103232EA4FCB7A71C81938757DCCF
S315200007B02326F4FE232404FE6F004004832784FEB0
S315200007C0939737000327C4FDB357F70093F7F70F26
S315200007D00327C4FEB347F7002326F4FE0327C4FEEF
S315200007E0B707000193873719B307F7022326F4FECC
S315200007F0832784FE938717002324F4FE032784FE91
S3152000080093073000E3DCE7FA8327C4FE138507004D
S315200008108320C102032481021301010367800000A3
S31520000820130101F923261106232481061304010747
S31520000830930710002326F4FEB75700201387471C82
S31520000840930744F99306070013074005130607008C
S315200008509385060013850700EF205064232404FEA9
S315200008606F00C00E032784FE930707009397170097
S31520000870B387E70093972700938707FFB3878700FF
S3152000088083A787FA13850700EFF0DFF093060500AC
S31520000890032784FE9307070093971700B387E70083
S315200008A093972700938707FFB387870083A7C7FA05
S315200008B0639CF602032784FE93070700939717008D
S315200008C0B387E70093972700938707FFB3878700AF
S315200008D083A747FA93850700B75700201385C70FCC
S315200008E0EF20D0216F00C005032784FE9307070061
S315200008F093971700B387E70093972700938707FFFF
S31520000900B387870083A647FA032784FE9307070049
S3152000091093971700B387E70093972700938707FFDE
S31520000920B387870083A787FA138607009385060077
S31520000930B75700201385C710EF20501C232604FE2E
S31520000940832784FE938717002324F4FE032784FE3F
S3152000095093076000E3D8E7F08327C4FE6388070087
S31520000960B75700209387C7136F00C000B7570020E2
S315200009709387471513850700EF20501813000000B2
S315200009808320C10603248106130101076780000026
S31520000990130101FA232E1104232C810413040106CA
S315200009A0EFF04FE9B7570020938787212320F4FAE9
S315200009B0B71701409387074083A707002322F4FA3D
S315200009C0B7A7B2FB938757DD2324F4FAB757002045
S315200009D0938747232326F4FAB71701409387474086
S315200009E083A707002328F4FAB767C1809387575453
S315200009F0232AF4FAB757002093870725232CF4FAE5
S31520000A00B72701409387078083A7070093F7F7004E
S31520000A10232EF4FAB777EEEB938777332320F4FC73
S31520000A20B7570020938707272322F4FCB7170140E6
S31520000A309387C74083A7070093F7F7002324F4FC86
S31520000A40B73773DC9387A7062326F4FCB757002015
S31520000A50938747292328F4FCB71701409387C7407B
S31520000A6083A7070093F7070F232AF4FCB7F7954BC4
S31520000A7093875751232CF4FCB75700209387472B95
S31520000A80232EF4FCB71701409387C74003A707001E
S31520000A90B7070100938707F0B377F7002320F4FE0A
S31520000AA0B7F7954B938757512322F4FE93071000EF
S31520000AB02326F4FE232404FE6F00C00E032784FEA3
S31520000AC09307070093971700B387E70093972700AC
S31520000AD0938707FFB387870083A747FB1385070004
S31520000AE0EFF05FCB93060500032784FE93070700EC
S31520000AF093971700B387E70093972700938707FFFD
S31520000B00B387870083A787FB639CF602032784FEAF
S31520000B109307070093971700B387E700939727005B
S31520000B20938707FFB387870083A707FB9385070073
S31520000B30B75700201385C70FEF20407C6F00C005F4
S31520000B40032784FE9307070093971700B387E700D0
S31520000B5093972700938707FFB387870083A607FB12
S31520000B60032784FE9307070093971700B387E700B0
S31520000B7093972700938707FFB387870083A747FBB1
S31520000B801386070093850600B75700201385472D47
S31520000B90EF20C076232604FE832784FE9387170042
S31520000BA02324F4FE032784FE93075000E3D8E7F0BE
S31520000BB08327C4FE63880700B75700209387472FF3
S31520000BC06F00C000B75700209387C73013850700F2
S31520000BD0EF20C072130000008320C1050324810585
S31520000BE01301010667800000130101FE232E110068
S31520000BF0232C8100130401021305803EEFF04FD30E
S31520000C00930710002326F4FEB7F700E09387070129
S31520000C1003A7070083A747002324E4FE032584FEB9
S31520000C20EFF05FB713070500B7772873938767BA86
S31520000C30631AF700B757002013854732EF2090013B
S31520000C406F000004032584FEEFF0DFB413070500D0
S31520000C50B7470F5A9387D75D631AF700B757002017
S31520000C6013858734EF20007F6F008001832584FE63
S31520000C70B75700201385473AEF204068232604FE05
S31520000C80B7F700E083A7070093F7F7002322F4FEC7
S31520000C90032544FEEFF01FB013070500B73773DCBA
S31520000CA09387A706631AF700B75700201385873D59
S31520000CB0EF20407A6F008001832544FEB75700203D
S31520000CC01385873FEF208063232604FEEFF04FD461
S31520000CD08327C4FE63880700B7570020938787427F
S31520000CE06F00C000B757002093870744138507007D
S31520000CF0EF20C060130000008320C101032481017E
S31520000D001301010267800000130101FD2326110251
S31520000D102324810213040103930710002326F4FEE3
S31520000D20B72701409387C78003A70700B72701404D
S31520000D309387C7801377E7FF23A0E700B7F700E084
S31520000D40938747001307100023A0E700F3271034EA
S31520000D502324F4FEB7170020938747D673901734C1
S31520000D60EFF0CFC4832784FE73901734B727014052
S31520000D709387C78083A7070093F717002322F4FEE3
S31520000D80032544FEEFF01FA113070500B7B769FB43
S31520000D9093874760631AF700B75700201385874566
S31520000DA0EF20406B6F008001832544FEB75700205B
S31520000DB013854748EF208054232604FEB7F700E02A
S31520000DC09387470083A7070093F717002320F4FE95
S31520000DD0032504FEEFF01F9C13070500B7F7954B7C
S31520000DE093875751631AF700B75700201385074C8E
S31520000DF0EF2040666F008001832504FEB757002050
S31520000E001385C74EEF20804F232604FEB7F700E058
S31520000E10938747001307100023A0E700F327103419
S31520000E202324F4FEB7170020938747E373901734E3
S31520000E30EFF0CFB7832784FE73901734B72701408E
S31520000E409387C78083A7070093F71700232EF4FC08
S31520000E500325C4FDEFF01F9413070500B7F7954B44
S31520000E6093875751631AF700B757002013854752C7
S31520000E70EF20405E6F0080018325C4FDB757002018
S31520000E8013850755EF208047232604FE8327C4FEBB
S31520000E9063880700B75700209387C7586F00C000A4
S31520000EA0B75700209387475A13850700EF20004540
S31520000EB0130000008320C1020324810213010103D1
S31520000EC067800000130101FD2326110223248102DD
S31520000ED013040103930710002326F4FEF327503052
S31520000EE02322F4FE832744FE93F7C7FF9387070345
S31520000EF02320F4FE832704FE83A70700232EF4FC79
S31520000F008327C4FD93F7F70F93F7F707A30DF4FC98
S31520000F108327C4FD93D7770093F7F70F93F7F7014D
S31520000F20230DF4FC0347B4FD9307F0066316F70080
S31520000F308347A4FD638C0700B75700201385C75B42
S31520000F40EF204051232604FE6F00800D232404FE4B
S31520000F508327C4FD93D7F70193974701032784FE80
S31520000F60B367F7002324F4FE0327C4FDB7F70F0069
S31520000F703377F700832784FEB367F7002324F4FE34
S31520000F808327C4FD93D747011397B700B7170000EF
S31520000F90938707803377F700832784FEB367F700AC
S31520000FA02324F4FE8327C4FD93D757019397170074
S31520000FB013F7E77F832784FEB367F7002324F4FE25
S31520000FC0032784FEB7071000B377F700638A07006C
S31520000FD0032784FEB707E0FFB367F7002324F4FE58
S31520000FE0032704FE832784FEB307F700232AF4FC95
S31520000FF0B70700209387C71A032744FD631AF70013
S31520001000B75700201385C75FEF20C0446F0040010B
S31520001010B75700201385C763EF20C043232604FE5D
S315200010208327C4FE63880700B75700209387076885
S315200010306F00C000B7570020938787691385070084
S31520001040EF20C02B130000008320C102032481025D
S315200010501301010367800000130101FE232E1100F6
S31520001060232C810013040102930710002326F4FE8B
S315200010701305803EEFF0CF8BEFF08F99B7F700E0A6
S3152000108083A707002324F4FE032584FEEFF08FF0C8
S3152000109013070500B7F7954B93875751631AF70047
S315200010A0B75700201385076BEF20C03A6F008001E9
S315200010B0832584FEB75700201385476DEF20002433
S315200010C0232604FE8327C4FE63880700B757002023
S315200010D0938787706F00C000B757002093870772E9
S315200010E013850700EF208021130000008320C10113
S315200010F0032481011301010267800000130101FA14
S31520001100232E1104232C810413040106EFF00F93E0
S31520001110930710002326F4FEB75700209387877382
S315200011202326F4FAB7E700E003A70700B707C003B2
S31520001130B377F7002328F4FAB727BAC69387C719D7
S31520001140232AF4FAB757002093870776232CF4FA3C
S31520001150B70701409387870083A707009397070166
S3152000116093D70701232EF4FAB7F768309387B72170
S315200011702320F4FCB75700209387C7782322F4FC5A
S31520001180B70701409387074083A7070093F7F70027
S315200011902324F4FCB73773DC9387A7062326F4FCB5
S315200011A0B75700209387477A2328F4FCB7070140D6
S315200011B09387874083A7070093F7F700232AF4FC39
S315200011C0B73773DC9387A706232CF4FCB757002088
S315200011D09387C77B232EF4FCB70701409387C7402C
S315200011E083A7070093F7F7002320F4FEB73773DCB5
S315200011F09387A7062322F4FE232404FE6F00C00E45
S31520001200032784FE9307070093971700B387E70009
S3152000121093972700938707FFB387870083A707FC49
S3152000122013850700EFF00FD793060500032784FEEA
S315200012309307070093971700B387E7009397270034
S31520001240938707FFB387870083A747FC639CF60233
S31520001250032784FE9307070093971700B387E700B9
S3152000126093972700938707FFB387870083A7C7FB3A
S3152000127093850700B75700201385C70FEF20000876
S315200012806F00C005032784FE930707009397170076
S31520001290B387E70093972700938707FFB3878700D5
S315200012A083A6C7FB032784FE93070700939717009F
S315200012B0B387E70093972700938707FFB3878700B5
S315200012C083A707FC1386070093850600B7570020DF
S315200012D01385472DEF208002232604FE832784FED4
S315200012E0938717002324F4FE032784FE93074000E8
S315200012F0E3D8E7F08327C4FE63880700B7570020AA
S315200013009387477D6F00C000B75700209387C77E1D
S3152000131013850700EF10907E130000008320C1057F
S31520001320032481051301010667800000130101FDD6
S31520001330232611022324810213040103930710009C
S315200013402326F4FEB71701409387C74003A707005B
S31520001350B71701409387C7401367070F23A0E700FD
S31520001360B70701409387074003A70700B707014047
S31520001370938707401367F70023A0E700F32710346D
S315200013802324F4FEB71700209387C7392322F4FEBF
S31520001390832744FE73901734EFE01FFA832784FED9
S315200013A073901734B70701409387074083A7070038
S315200013B093F7F7002320F4FE032504FEEFF08FBDFC
S315200013C013070500B73773DC9387A706631AF70060
S315200013D0B767002013854780EF20C0076F00800184
S315200013E0832504FEB767002013854783EF1010710D
S315200013F0232604FEB71701409387C74083A707001B
S3152000140093D7470093F7F700232EF4FC0325C4FD5A
S31520001410EFF04FB813070500B7F7954B9387575151
S31520001420631AF700B767002013850787EF2080022D
S315200014306F0080018325C4FDB76700201385478A86
S31520001440EF10D06B232604FE8327C4FE6388070093
S31520001450B76700209387878E6F00C000B76700208C
S315200014609387079013850700EF105069130000003B
S315200014708320C10203248102130101036780000037
S31520001480130101FC232E1102232C810213040104D3
S31520001490930710002326F4FEF32750302320F4FE72
S315200014A0232404FE6F00401B832784FE9387670155
S315200014B0232EF4FC832704FE93F7C7FF0327C4FDDE
S315200014C013172700B387E700232CF4FC832784FD1A
S315200014D083A70700232AF4FC832744FD93F7F70FFD
S315200014E093F7F707A309F4FC832744FD93D77700E6
S315200014F093F7F70F93F7F7012309F4FC034734FD1D
S315200015009307F0066316F700834724FD638A0702D4
S31520001510B7670020138787A0832784FE9397270029
S31520001520B307F70083A7070093850700B767002056
S3152000153013858791EF10905C232604FE6F0000111F
S31520001540232204FE832744FD93D7F701939747016F
S31520001550032744FEB367F7002322F4FE032744FD46
S31520001560B7F70F003377F700832744FEB367F700FA
S315200015702322F4FE832744FD93D747011397B70010
S31520001580B7170000938707803377F700832744FE39
S31520001590B367F7002322F4FE832744FD93D7570130
S315200015A09397170013F7E77F832744FEB367F70067
S315200015B02322F4FE032744FEB7071000B377F70073
S315200015C0638A0700032744FEB707E0FFB367F700E7
S315200015D02322F4FE032784FD832744FEB307F70066
S315200015E02326F4FCB7070020938787330327C4FC00
S315200015F06318F702B7670020138787A0832784FE26
S3152000160093972700B307F70083A707009385070062
S31520001610B76700201385C794EF10504E6F00000364
S31520001620B7670020138787A0832784FE9397270018
S31520001630B307F70083A7070093850700B767002045
S315200016401385C796EF10904B232604FE832784FE2E
S31520001650938717002324F4FE032784FE9307300084
S31520001660E3D4E7E48327C4FE63880700B767002036
S31520001670938787996F00C000B76700209387079BE1
S3152000168013850700EF109047130000008320C10345
S31520001690032481031301010467800000130101FF65
S315200016A02326110023245100232281001304010143
S315200016B0130000006FF0DFFF130101FF2326110046
S315200016C0232451002322810013040101130000006A
S315200016D06FF0DFFF130101FF232611002324810071
S315200016E013040101EF00C008EFE0DF94EFE01FB51F
S315200016F01305401FEFE0DFA3130000006FF0DFFFAC
S3152000170000000000000000000000000000000000B3
S3152000171000000000000000000000000000000000A3
S315200017200000000000000000000000000000000093
S315200017306FE0DFA7000000000000000000000000AE
S315200017400000000000000000000000000000000073
S3152000175000000000000000006FE01FBE6FE0DFBD4C
S315200017606FE09FBD6FE05FBD130000001300000017
S3152000177097020000938202F993E21200739052308E
S31520001780678000001300000013000000130101FE13
S31520001790232E1100232C810013040102232604FE8C
S315200017A0232404FEB717024003A70700B7170240F9
S315200017B01367170023A0E700B71702409387470057
S315200017C083A60700B7170240938747003707FFF81D
S315200017D033F7E60023A0E700B717024083A60700E9
S315200017E0B71702403707F7FE1307F7FF33F7E60070
S315200017F023A0E700B717024083A60700B7170240C9
S315200018003707FCFF1307F7FF33F7E60023A0E700AF
S31520001810B71702409387470083A60700B7170240F1
S3152000182093874700370781FF1307F7FF33F7E60053
S3152000183023A0E700B717024083A60700B717024088
S31520001840370700EC1307F7FF33F7E60023A0E7007E
S31520001850B7170240938787003707FF0023A0E700CA
S31520001860B71702409387C70223A00700B717024085
S3152000187083A60700B71702403707010033E7E600C3
S3152000188023A0E700B717024003A70700B707020007
S31520001890B377F7002324F4FE8327C4FE938717002B
S315200018A02326F4FE832784FE639807000327C4FEBD
S315200018B09307401FE318F7FCB717024003A707005A
S315200018C0B7070200B377F700639607009307100067
S315200018D06F00C011B717024013874700B7170240A1
S315200018E0938747000327070023A0E700B717024086
S315200018F013874700B717024093874700032707003F
S3152000190023A0E700B71702409387C70203A7070063
S31520001910B71702409387C7021367074023A0E70043
S31520001920B71702409387470083A60700B7170240E0
S31520001930938747003707C1FF1307F7FF33F7E60002
S3152000194023A0E700B71702409387470083A6070026
S31520001950B7170240938747003707010033E7E600B1
S3152000196023A0E700B717024083A60700B717024057
S315200019703707000133E7E60023A0E7001300000045
S31520001980B717024003A70700B7070002B377F7008F
S31520001990E38807FEB71702409387470003A707008F
S315200019A0B7170240938747001377C7FF23A0E700A6
S315200019B0B71702409387470003A70700B7170240CF
S315200019C0938747001367270023A0E7001300000032
S315200019D0B71702409387470083A7070013F7C7006E
S315200019E093078000E316F7FE930700001385070090
S315200019F08320C101032481011301010267800000B5
S31520001A00130101FD232611022324510223228102E0
S31520001A102320A102232EB100232CC100232AD1008A
S31520001A202328E1002326F1002324010113040103C6
S31520001A30B717004083D707011397070113570701EC
S31520001A40B71700401377E7FF13170701135707014E
S31520001A502398E700B767002003A787C683A7C7C6D2
S31520001A6013051000930500003306A700130806008F
S31520001A703338E800B386B700B307D800938607004B
S31520001A801307060093870600B766002023A4E6C640
S31520001A9023A6F6C6130000008320C10283228102FA
S31520001AA003244102032501028325C1010326810166
S31520001AB083264101032701018327C10003288100D2
S31520001AC01301010373002030130101FE232E1100A0
S31520001AD0232C8100130401022326A4FEB7670020CD
S31520001AE003A787C683A7C7C68327C4FE23A2E7000A
S31520001AF08327C4FE03A747008327C4FE23A0E7004D
S31520001B00B767002003A787C683A7C7C69307070022
S31520001B10138507008320C1010324810113010102DB
S31520001B2067800000130101FD232611022324810270
S31520001B3013040103232EA4FC232CB4FCB767002036
S31520001B4003A787C683A7C7C62324E4FE2326F4FE5D
S31520001B50032784FE8327C4FE13064006930600004F
S31520001B601305070093850700EF008076130705000D
S31520001B70938705008326C4FD23A0E60023A2F60052
S31520001B80032784FE8327C4FE13064006930600001F
S31520001B901305070093850700EF00103A1307050089
S31520001BA0938705008327C4FD23A4E700930700003D
S31520001BB0138507008320C102032481021301010338
S31520001BC067800000130101FE232E1100232C8100C3
S31520001BD0130401022326A4FE2324B4FE8327C4FE75
S31520001BE003A7070083A74700930540063385B7025E
S31520001BF093050000B305B7023305B50093054006EB
S31520001C003303B702B338B70213080300B30715012D
S31520001C10938807001307080093870800B7650020FC
S31520001C2023A4E5C623A6F5C68327C4FE83A787007B
S31520001C301386070093D7F74193860700B7670020DE
S31520001C4003A587C683A5C7C63307A60013080700C2
S31520001C503338C800B387B600B306F800938706006A
S31520001C60B766002023A4E6C623A6F6C6930700007F
S31520001C70138507008320C10103248101130101027A
S31520001C8067800000130101FF232611002324810011
S31520001C9013040101B74701409387078083D70700C4
S31520001CA09397070193D7070193F7070263800702EB
S31520001CB0B74701409387078083D74700939707014B
S31520001CC093D7070193F7F70F6F0080009307000063
S31520001CD0138507008320C10003248100130101011D
S31520001CE067800000130101FE232E1100232C8100A2
S31520001CF01304010293070500A307F4FEB74701402A
S31520001D00938707800347F4FE13170701135707012C
S31520001D102392E70013000000B7470140938707800E
S31520001D2083D707009397070193D7070193F70708EF
S31520001D30E38407FE13000000130000008320C10186
S31520001D40032481011301010267800000130101FDB4
S31520001D50232611022324810213040103232EA4FC2B
S31520001D60B767002083A707C7639A0700B7670020D5
S31520001D70376700201307C7DB23A8E7C6B76700200D
S31520001D8083A707C72326F4FEB767002003A707C744
S31520001D908327C4FD3307F700B76700209387C75B07
S31520001DA063FEE700EF108070130705009307C0005D
S31520001DB02320F7009307F0FF6F000002B76700208B
S31520001DC003A707C78327C4FD3307F700B76700209B
S31520001DD023A8E7C68327C4FE138507008320C102F4
S31520001DE0032481021301010367800000130101FE11
S31520001DF0232E1100232C810013040102130000005E
S31520001E00EFF0DF9893070500E39C07FEB717024023
S31520001E1083A68701B71702403747000033E7E6005D
S31520001E2023ACE700B717024003A78701B717024084
S31520001E301367470023ACE700B717024003A78701C3
S31520001E40B71702401367170023ACE700B717024005
S31520001E5003A78701B71702401367070223ACE700E1
S31520001E60B717024003A78701B71702401367070475
S31520001E7023ACE700B717024083A6C700B717024076
S31520001E80374700001307070633E7E60023A6E700D7
S31520001E90B717024083A6C700B717024037C7FFFF10
S31520001EA01307F7F933F7E60023A6E700B717014033
S31520001EB09387478003A70700B7170140938747807A
S31520001EC01367070B23A0E700B717014093874780C6
S31520001ED003A70700B717014093874780136707407A
S31520001EE023A0E700B7470140938707801307204EBA
S31520001EF02394E700B74701409387078037270000E0
S31520001F001307C7002396E700B717024003A7C701A8
S31520001F10B71702401367070123AEE700B717024041
S31520001F2003A70701B71702401367070123A8E70095
S31520001F30B717024003A70701B71702401377F7FE2A
S31520001F4023A8E700B717024003A7C701B717024027
S31520001F501367070223AEE700B717024003A707015E
S31520001F60B71702401367070223A8E700B7170240F6
S31520001F7003A70701B71702401377F7FD23A8E70049
S31520001F80B767002023A807C6B7670020938787C6B0
S31520001F902326F4FEB76700209387C7DB2324F4FEAD
S31520001FA06F0040018327C4FE138717002326E4FE13
S31520001FB0238007000327C4FE832784FEE364F7FEFD
S31520001FC0B767002083A707C683A7470093060000AC
S31520001FD0130620009305000013850700EF0010402C
S31520001FE0B767002083A707C683A78700930600004C
S31520001FF0130620009305000013850700EF00103E0E
S31520002000B767002083A707C683A7C70093060000EB
S31520002010130620009305000013850700EF00103CEF
S31520002020130000008320C101032481011301010252
S3152000203067800000130101FF23261100232481005D
S3152000204013040101130000008320C1000324810032
S315200020501301010167800000130101FE232E1100E8
S31520002060232C8100130401022326A4FE8327C4FE09
S31520002070638A07008325C4FEB7670020138587A1DE
S31520002080EF10C027EFF01FFB130000008320C101D3
S31520002090032481011301010267800000130101FE60
S315200020A0232E1100232C8100130401022326A4FED3
S315200020B09307F0FF138507008320C10103248101C4
S315200020C01301010267800000130101FE232E110077
S315200020D0232C8100130401022326A4FE2324B4FE0C
S315200020E02322C4FE9307F0FF138507008320C10136
S315200020F0032481011301010267800000130101FE00
S31520002100232E1100232C8100130401022326A4FE72
S315200021102324B4FE832784FE3727000023A2E7006A
S3152000212093070000138507008320C1010324810142
S315200021301301010267800000130101FE232E110006
S31520002140232C8100130401022326A4FE2324B4FE9B
S315200021502322C4FE93070000138507008320C101B4
S31520002160032481011301010267800000130101FE8F
S31520002170232E1100232C8100130401022326A4FE02
S3152000218093070000138507008320C10103248101E2
S315200021901301010267800000130101FD23261102AD
S315200021A02324810213040103232EA4FC232CB4FC34
S315200021B0232AC4FC832744FD2326F4FE6F00C00196
S315200021C0832784FD13871700232CE4FC83C707008D
S315200021D013850700EFF01FB1832744FD1387F7FF10
S315200021E0232AE4FCE39E07FC8327C4FE138507000D
S315200021F08320C102032481021301010367800000AA
S31520002200130101FD23261102232481021304010355
S31520002210232EA4FC232CB4FC232AC4FC232604FE50
S31520002220EFF05FA693070500A305F4FE8347B4FEEF
S3152000223063820702832784FD13871700232CE4FC7F
S315200022400347B4FE2380E7008327C4FE9387170045
S315200022502326F4FE032744FD8327C4FEE312F7FC5E
S315200022608327C4FE138507008320C102032481022D
S315200022701301010367800000130101FF23261100CB
S31520002280232481001304010193070000138507000E
S315200022908320C1000324810013010101678000000F
S315200022A0130101FE232E1100232C810013040102A9
S315200022B02326A4FE2324B4FE9307000013850700DB
S315200022C08320C101032481011301010267800000DC
S315200022D0130806009307050093880500639C060CE7
S315200022E063FAC522370701006368E636370700011F
S315200022F0130380016374E60013030001376700208F
S31520002300B3566600130787A33307D7000347070092
S315200023109306000233076700630ED700B386E640B4
S31520002320B398D5003357E5003318D600B317D50038
S31520002330B36817011356080133D5C802931608014E
S3152000234093D6060113D70701B3F8C802B385A602B0
S315200023509398080133671701637CB700B308E80038
S315200023601387080063F4B80063F408391305F5FFF2
S315200023703307B740B355C7029397070193D7070191
S315200023803377C702B386B60213170701B3E7E70010
S3152000239063FAD700B307F80063F4D70063F607356E
S315200023A09385F5FF131505013365B50093050000E8
S315200023B06780000063F8D500930500001305000030
S315200023C067800000B707010063E6F62AB707000119
S315200023D01307800163F4F60013070001B767002096
S315200023E033D8E600938787A3B387070183C70700FF
S315200023F013080002B387E700638607293308F840ED
S31520002400B358F600B3960601B3E8D80033D3F500E7
S3152000241093DE0801B356D303139E0801B395050135
S31520002420135E0E01B357F500B3E7B70013D70701C4
S31520002430331606013373D303B305DE0213130301E8
S3152000244033676700637CB7003383E8001307030014
S315200024506374B300637C132D9386F6FF3307B7406E
S315200024603353D7039397070193D707013377D703BE
S31520002470B3056E0213170701B3E7E70063FCB70045
S315200024803387F800930707006374B700637417292E
S315200024901303F3FF93960601B3E66600931806012D
S315200024A0139706011357070193D8080113560601FF
S315200024B013D30601330E1703B387B740B3081303AC
S315200024C0B305C70213570E01B38515013307B700AD
S315200024D03303C30263761701370601003303C300B3
S315200024E0135607013306660063E0C702131E0E016A
S315200024F0135E0E0113170701331505013307C701B4
S31520002500637EE51E639CC71E1385F6FF93050000B8
S3152000251067800000630A061437070100637CE6180B
S315200025209338061093B8180093983800B3561601BE
S3152000253037670020130787A33307D7000347070011
S315200025409306000233071701630AD714B387E640C0
S315200025503318F60033D3E50093580801335E13038E
S3152000256013160801B395F500135606013357E500F7
S315200025703367B70093560701B317F5003373130378
S31520002580B305C60313130301B3E6660063FCB60066
S315200025903305D800930605006374B50063760517E6
S315200025A0130EFEFFB386B64033D516031317070165
S315200025B013570701B3F616033303A60293960601B3
S315200025C03367D700637C6700B306E80013870600ED
S315200025D063F4660063F606151305F5FF93150E01E1
S315200025E0B3E5A500330767403355170393D6070194
S315200025F0337717033303C5021317070133E7E600C2
S31520002600637C6700B306E8001387060063F4660060
S3152000261063F6060D1305F5FF33076740B356170318
S315200026209397070193D70701337717033386C6029B
S3152000263013170701B3E7E70063FAC700B307F800EB
S3152000264063F4C70063F807099386F6FF131505019F
S315200026503365D5006780000013330610133313004B
S31520002660131333006FF09FC99306000093080000F0
S315200026706FF01FEC13B70610133717001317370028
S315200026806FF0DFD53336C500B3B6B6001336160065
S3152000269033E5C60093050000678000003387C540F8
S315200026A093580601131606011356060193051000CA
S315200026B06FF09FF3370700016378E6009356060113
S315200026C0930800016FF0DFE6935686019308800198
S315200026D06FF01FE69386E6FF6FF05FF71305E5FFC1
S315200026E0338706016FF05FF39385E5FF6FF09FCB8D
S315200026F01305E5FF338708016FF09FC71385060092
S315200027009305000067800000130EEEFFB306050157
S315200027106FF05FE91303E3FFB30717016FF09FD74D
S315200027201305E5FF338706016FF05FEB9386E6FF1F
S31520002730330713016FF09FD2130806009308050094
S315200027401383050013870500639A060E63FEC526CC
S31520002750B70701006364F63EB707000193068001C0
S315200027606374F60093060001B76700203353D60042
S31520002770938787A3B387670083C7070013030002E5
S31520002780B387D700B306F340638C67003397D50031
S31520002790B357F50033E7E7003318D600B318D50052
S315200027A0935508013356B702131308011353030137
S315200027B093D708013377B70233066602131707014A
S315200027C0B3E7E70063F2C702B307F80033B50701A2
S315200027D033B7C700133515003377A7003307E0401A
S315200027E033770701B307F700B387C74033D7B7025C
S315200027F01395080113550501B3F7B702330767028E
S31520002800939707013365F5006372E5023305A80047
S3152000281033360501B337E50013361600B3F7C70084
S31520002820B307F040B3F707013385A7003305E5402A
S315200028303355D5009305000067800000130E050070
S3152000284063F4D50067800000B707010063E6F63021
S31520002850B70700011307800163F4F6001307000190
S31520002860B767002033D8E600938787A3B38707018D
S3152000287083C8070013080002B388E8006386082F80
S3152000288033081841B3960601335316013363D30038
S31520002890B3DE1501935F0301B3D7FE03131F0301B4
S315200028A0B3950501135F0F01B3561501B3E6B600C4
S315200028B013D7060133160601331E0501B3FEFE03A8
S315200028C0B305FF02939E0E013367D701637CB700E1
S315200028D03305E300130705006374B500637A652E9C
S315200028E09387F7FF3307B7403355F70393960601CF
S315200028F093D606013377F703B305AF021317070103
S3152000290033E7E600637CB700B306E30013870600CF
S3152000291063F4B60063F8662A1305F5FF939707015B
S31520002920B3E7A7003307B74093160601939507012F
S3152000293093D5050193D6060193D70701135F0601A8
S31520002940B38ED502B386D70213D50E01B385E50320
S31520002950B385D5003305B500B387E7036376D50085
S31520002960B7060100B387D70093560501939E0E0143
S3152000297093DE0E0113150501B387F6003305D50145
S315200029806368F700B305F74063900502637EAE00E7
S315200029903306C5403335C50033056500B387A740E8
S315200029A0B305F740130506003305AE40333EAE00AF
S315200029B0B385C541B398150133550501B3D5050136
S315200029C033E5A8006780000063020618B7070100F8
S315200029D06370F61C133706101337170013173700CA
S315200029E0B356E600B7670020938787A3B387D7003F
S315200029F083C7070013030002B387E700B306F3403B
S31520002A00638E67163318D60033DEF500135308019C
S31520002A10B35E6E0213160801B395D5003357F50041
S31520002A20135606013367B70093570701B318D5002D
S31520002A30337E6E02B385CE02131E0E01B3E7C701A5
S31520002A4063F2B702B307F80033BE070133B5B70008
S31520002A50133E1E003375C5013305A04033750501AD
S31520002A60B307F500B387B740B3D56702131707013D
S31520002A7013570701B3F76702B385C502939707017A
S31520002A803367F7006372B7023307E800333507016F
S31520002A90B337B70013351500B3F7A700B307F040D7
S31520002AA0B3F707013387E7003307B740B35567020B
S31520002AB093D7080133776702B385C5021317070139
S31520002AC0B3E7E70063F2B702B307F80033B50701AF
S31520002AD033B7B700133515003377A7003307E04027
S31520002AE033770701B307F700B387B74033D76702B9
S31520002AF09398080193D8080133F56702B307C702F4
S31520002B001315050133E5A8006372F5023305A80005
S31520002B10333605013337F500133616003377C700F1
S31520002B203307E040337707013305A7003305F54027
S31520002B303355D500930500006780000093360610B4
S31520002B4093B61600939636006FF01FC293060000C8
S31520002B50130700006FF01FE913B70610133717008D
S31520002B60131737006FF0DFCF63E4B6046372C50432
S31520002B7013050E0093050300678000003387C540C8
S31520002B801353060113160601135606016FF01FF2A2
S31520002B90B70700016378F600935606011307000174
S31520002BA06FF05FE493568601130780016FF09FE371
S31520002BB0330EC5403333C501B386D54033836640D3
S31520002BC06FF01FFB1305E5FF338766006FF01FD5F7
S31520002BD09387E7FF330765006FF0DFD0130101FD10
S31520002BE0232E31019739000083A9C90723248102A6
S31520002BF02322910223202103232C41012326110283
S31520002C00232A51011304050013890500130A06001F
S31520002C1093840600638A090083A709026396070046
S31520002C2013850900EF008043930720006308FA000C
S31520002C3093372A00638A071863C80418930504008B
S31520002C4013850900EF10901883254403638C050033
S31520002C50930744046386F50013850900EF00502688
S31520002C60232A04028357C400232C040023220400B1
S31520002C7093F7070863880700832504011385090055
S31520002C80EF0010248357C40037F7FFFF1307C7351B
S31520002C90B3F7E7002316F40093072000630AFA101F
S31520002CA09306C100130681009305040013850900CD
S31520002CB0EF00404B8357C400B3E7A7002316F40068
S31520002CC0639804068324810013850400EF00D077DF
S31520002CD013090500938A04006312050C832A8100D8
S31520002CE063969A0A1305F0FF8357C4002324040031
S31520002CF093E727002316F400930774042320F40097
S31520002D002328F40093071000232AF4008320C1020D
S31520002D100324810283244102032901028329C1015C
S31520002D20032A8101832A41011301010367800000E0
S31520002D30E30C09F883A709026396070013850900A7
S31520002D40EF00C031930710006318FA008357C400C0
S31520002D50B3E747012316F4008317C4002320240178
S31520002D6023282401232A940013F78700630A0704E3
S31520002D7093F7170063820704B304904023240400CA
S31520002D80232C9400130500006FF05FF813850A00CA
S31520002D90EF00906B13090500E30605F48357C40082
S31520002DA093840A0093E707082316F4006FF09FF830
S31520002DB0130500006FF05FF3232494006FF09FFC4F
S31520002DC0232404006FF01FFC1305F0FF6FF01FF49F
S31520002DD01305000067800000130101FF23248100F2
S31520002DE023261100130405002316B5002317C5005A
S31520002DF0232005002322050023240500232205067F
S31520002E0023280500232A0500232C0500130680000D
S31520002E10930500001305C505EF00900697270000CF
S31520002E20938707852322F402972700009387C78973
S31520002E302324F40297270000938747912326F40240
S31520002E4097270000938707968320C10023208402BA
S31520002E502328F40203248100130101016780000066
S31520002E6017360000130686DA9715000093854576F7
S31520002E7017350000130545DA6F00402483254500E9
S31520002E80130101FF23248100232611009737000018
S31520002E90938787DE130405006384F500EF10007323
S31520002EA08325840097370000938787E36386F500A0
S31520002EB013050400EF1080718325C40097370000A6
S31520002EC0938787E8638CF5001305040003248100AB
S31520002ED08320C100130101016F10406F8320C100C0
S31520002EE0032481001301010167800000130101FF03
S31520002EF097070000938707F7130600009305400005
S31520002F0017350000130545D7232611001737000073
S31520002F102320F7EAEFF05FEC1306100093059000EC
S31520002F20173500001305C5DBEFF01FEB8320C1002A
S31520002F301306200093052001173500001305C5E070
S31520002F40130101016FF05FE913050000678000009F
S31520002F509737000083A7C7E5130101FF232021012E
S31520002F602326110023248100232291001309050022
S31520002F7063940700EFF09FF797340000938404C909
S31520002F8003A4840083A744009387F7FF63D807022E
S31520002F9003A404006310040C9305C01A130509004A
S31520002FA0EF005055130405006314050823A0040000
S31520002FB09307C0002320F9006F0040050317C400C3
S31520002FC063140706B707FFFF93871700232204061B
S31520002FD02320040023220400232404002326F400B3
S31520002FE023280400232A0400232C0400130680002F
S31520002FF0930500001305C405EF008068232A040208
S31520003000232C040223240404232604048320C10041
S3152000301013050400032481008324410003290100B1
S315200030201301010167800000130484066FF0DFF5A9
S3152000303093074000232005002322F5001305C50031
S315200030402324A4001306001A93050000EF00406312
S3152000305023A08400930404006FF09FF283270502C7
S315200030606390070297070000938787E12320F502E4
S315200030709737000083A7C7D3639407006FF01FE735
S315200030806780000067800000678000001736000018
S315200030901306C6B7970500009385C5D31305000010
S315200030A06F00C00117360000130646B697050000CC
S315200030B09385C5E9130500006F004000130101FD4B
S315200030C02324810223202103232E3101232C410195
S315200030D0232A51012326110223229102130A0500D5
S315200030E0938A050013040000130910009309F0FFCA
S315200030F083258600832446009384F4FF63DA040242
S3152000310003260600E31606FE8320C10213050400EB
S315200031100324810283244102032901028329C10158
S31520003120032A8101832A41011301010367800000DC
S3152000313083D7C5006374F9028397E500638037035C
S3152000314013050A002326C1002324B100E7800A00C4
S315200031500326C100832581003364A4009385850658
S315200031606FF09FF9130101F8232C810613840500C3
S315200031708395E500232A9106232E11069304060043
S3152000318063DA05028357C40093F70708639C070494
S31520003190130700408320C1070324810723A0F600DC
S315200031A023A0E4001305000083244107130101082E
S315200031B067800000130681012326D100EF00804797
S315200031C08326C100E34005FC8327C10137F70000B1
S315200031D0B3F7E70037E7FFFFB387E70093B717009A
S315200031E06FF01FFB93070000130700046FF09FFA90
S315200031F003D7C500130101FD2324810223261102D2
S315200032002322910213772700138405006306070201
S31520003210930774042320F4002328F4009307100056
S31520003220232AF4008320C10203248102832441023D
S3152000323013010103678000009306C1011306810173
S3152000324093040500EFF01FF2832581011385040006
S315200032502326B100EF00102A8317C4008325C1005E
S31520003260631E050013F70720E31E07FA93F7C7FF2F
S3152000327093E727002316F4006FF09FF993E70708DA
S315200032802316F4008327C1012320A4002328A400A9
S31520003290232AB400E38807F88315E4001385040085
S315200032A0EF00401CE30005F88357C40093F7C7FFDF
S315200032B093E717002316F4006FF0DFF6130101FCE5
S315200032C02324C1022326D1022328E102232AF10244
S315200032D0232C0103232E1103138605008325850045
S315200032E093068102232E11002326D100EF00005CD5
S315200032F08320C1011301010467800000130101FC32
S31520003300232AF1029737000083A7C7952324C102F9
S315200033102326D1022322B1022328E102232C0103F2
S31520003320232E110383A58700930641021306050069
S3152000333013850700232E11002326D100EF00005706
S315200033408320C10113010104678000008327050241
S31520003350130101FE232C8100232A91002328210119
S31520003360232E110023263101032485009304050012
S315200033701389050063940700EFF05FCE8357C400DE
S3152000338093F7870063860700832704016394070A5F
S315200033909305040013850400EF100052630C050802
S315200033A01305F0FF8320C1010324810183244101F9
S315200033B0032901018329C10013010102678000004E
S315200033C063DA07000327840163CCE704938765FF4C
S315200033D06388070483270400138717002320E4004B
S315200033E02380B70013091900832784008345090029
S315200033F09387F7FF2324F400E39405FC63D00704A6
S31520003400130604009305A00013850400EF10C039AD
S315200034109307F0FFE306F5F81305A0006FF09FF879
S315200034201306040013850400EF100038E31C35FB57
S315200034306FF01FF79309F0FF6FF01FFB832704003F
S31520003440138717002320E4001307A0002380E7003A
S315200034506FF09FFC93050500173500000325858036
S315200034606FF0DFEE130101FF232481001304050012
S31520003470138505009737000023AE079223261100F7
S31520003480EFE0DFCE9307F0FF631AF50097370000D1
S3152000349083A74792638407002320F4008320C1007A
S315200034A00324810013010101678000001725000015
S315200034B00325457B678000009727000083A7877A2E
S315200034C06388A7168327C501130101FE232C8100DB
S315200034D0232E1100232A910023282101232631019E
S315200034E0130405006384070883A7C700638C0702BB
S315200034F093040000130900088327C40183A7C7008B
S31520003500B387970083A50700639805049384440036
S31520003510E39424FF8327C4011305040083A5C70071
S31520003520EF00001A8327C40183A5070063860500E0
S3152000353013050400EF00C0188327C40183A4870065
S3152000354063860402938504001305040083A4040003
S31520003550EF0000176FF0DFFE83A9050013050400B6
S31520003560EF000016938509006FF01FFA83254401AA
S315200035706386050013050400EF0080148325C4012B
S315200035806386050013050400EF00801383250403DA
S315200035906386050013050400EF008012832544038B
S315200035A06386050013050400EF008011832584033C
S315200035B06386050013050400EF008010832584042C
S315200035C06386050013050400EF00800F832544045D
S315200035D06386050013050400EF00800E8325C402D0
S315200035E06386050013050400EF00800D832704027F
S315200035F06382070213050400032481018320C1018D
S3152000360083244101032901018329C10013010102F9
S31520003610678007008320C10103248101832441019F
S31520003620032901018329C1001301010267800000DB
S3152000363067800000130101FF232481001304050085
S3152000364013850500930506009727000023A4077617
S3152000365023261100EFE09FAA9307F0FF631AF500D7
S315200036609727000083A70775638407002320F400AB
S315200036708320C1000324810013010101678000001B
S3152000368013030500630A06002300B3001306F6FFA2
S3152000369013031300E31A06FE6780000013030500D8
S315200036A0630E060083830500230073001306F6FFCE
S315200036B01303130093851500E31606FE67800000AA
S315200036C0638E050E83A7C5FF130101FE232C8100FF
S315200036D0232E11001384C5FF63D407003304F4009E
S315200036E02326A100EF0010789727000083A7076DF7
S315200036F00325C100639007022322040097270000B8
S3152000370023AE876A032481018320C10113010102AC
S315200037106F0090756374F402832604003307D40087
S31520003720639AE70003A7070083A747003307D7005C
S315200037302320E4002322F4006FF05FFC13870700A8
S3152000374083A7470063840700E37AF4FE83260700F5
S315200037503306D7006318860203260400B386C60004
S315200037602320D7003306D700E39EC7F803A6070019
S3152000377083A74700B306D6002320D7002322F700CD
S315200037806FF05FF86378C4009307C0002320F5002C
S315200037906FF05FF703260400B306C400639AD700D0
S315200037A083A6070083A74700B386C6002320D4003C
S315200037B02322F400232287006FF0DFF467800000C5
S315200037C0832786009387F7FF2324F60063DC070010
S315200037D00327860163C6E700938765FF6394070086
S315200037E06F00907C8327060013850500138717003A
S315200037F02320E6002380B70067800000130101FE26
S31520003800232C8100232A91002328210123263101FC
S3152000381023244101232E110093090500138A050054
S3152000382013040600B304D6001309F0FF63169400B0
S31520003830130500006F00C0018345040013060A002B
S3152000384013850900EFF0DFF713041400E31025FFBA
S315200038508320C1010324810183244101032901011D
S315200038608329C100032A8100130101026780000019
S3152000387083278600130101FF2324810023261100BC
S315200038801304060063800702EF10C01423240400EB
S315200038908320C10023220400032481001301010197
S315200038A067800000130500006FF09FFE130101F5ED
S315200038B02324810A2322910A232E3109232C41090C
S315200038C02326110A2320210B232A510923286109A3
S315200038D023267109232481092322910993090500AE
S315200038E09384050013040600138A06006308050066
S315200038F08327050263940700EFF04FF683D7C400B1
S3152000390093F78700638C071083A704016388071049
S3152000391093070002A30CF10293070003232E410113
S31520003920232A0102230DF102130AF0FF172B0000B0
S31520003930130BCB20930B1000930AA000130C04004A
S3152000394083470C00B33CF0009387B7FDB337F000F4
S31520003950B3FCFC0063980C10B3068C406386060209
S315200039601306040093850400138509002326D1003D
S31520003970EFF0DFE863044529832741038326C1004E
S31520003980B387D700232AF10283470C0063880726D2
S3152000399013041C00232001022326010223224103B3
S315200039A023240102A3010106232C010683450400DA
S315200039B0130650001725000013054518EF10804701
S315200039C083270102930614006312050A13F70701E1
S315200039D06306070013070002A301E10613F7870019
S315200039E0630607001307B002A301E106034604009D
S315200039F01307A0026308E6088327C1029306000086
S31520003A001306900003470400130707FD6372E60EB2
S31520003A10638806082326F1026F0080089385040038
S31520003A2013850900EF005069E30405EE1305F0FF46
S31520003A308320C10A0324810A8324410A0329010A17
S31520003A408329C109032A8109832A4109032B0109F4
S31520003A50832BC108032C8108832C41081301010BF9
S31520003A6067800000130C1C006FF09FED3305654145
S31520003A703395AB003365F5002320A102138406009D
S31520003A806FF0DFF20327C101130647000327070063
S31520003A90232EC100634407042326E1021384060073
S31520003AA0034704009307E002631EF706034714004A
S31520003AB09307A0026318F7048327C1011304240087
S31520003AC01387470083A70700232EE10063D407004E
S31520003AD09307F0FF2322F1026F00C0043307E04072
S31520003AE093E727002326E1022320F1026FF01FFB34
S31520003AF0B38757031304140093061000B387E70017
S31520003B006FF05FF0130414002322010293070000D4
S31520003B109306900003470400130707FD63FAE6089F
S31520003B20E39A0CFA8345040013063000172500009B
S31520003B3013054501EF1000306304050297270000A6
S31520003B40938747003305F5408327010213070004B6
S31520003B503317A700B3E7E700130414002320F1026C
S31520003B608345040013066000172500001305C5FDD4
S31520003B70230CB102EF10002C630C050893070000FC
S31520003B80639A0704032701028327C10113770710CD
S31520003B90630A070293874700232EF10083274103F8
S31520003BA013041400B3872701232AF1026FF01FD9CB
S31520003BB0B387570313041400930C1000B387E70050
S31520003BC06FF05FF59387770093F787FF93878700DA
S31520003BD06FF09FFC1307C10197060000938646C22B
S31520003BE0138604009305010213850900970000003F
S31520003BF0E700000013090500E31245FB83D7C40044
S31520003C0093F70704E39407E2032541036FF05FE28D
S31520003C101307C10197060000938686BE138604000B
S31520003C209305010213850900EF0080446FF09FFC85
S31520003C309306060013860500930505001725000048
S31520003C40032545026FF09FC6930505001725000042
S31520003C50032545016F00000A93050500172500007E
S31520003C60032545006FF0DFA59727000083A7C7141B
S31520003C70130101FF23248100232021012326110083
S31520003C80232291001309050013840500639A070077
S31520003C9093050000EF1040269727000023AEA710BB
S31520003CA09305040013050900EF1000259304F0FF87
S31520003CB0631295021304F0FF8320C100130504004C
S31520003CC003248100832441000329010013010101FB
S31520003CD067800000130435001374C4FFE30E85FCCF
S31520003CE0B305A44013050900EF100021E31695FC47
S31520003CF06FF05FFC130101FE232A910093843500A7
S31520003D0093F4C4FF232E1100232C810023282101A4
S31520003D102326310123244101938484009307C00084
S31520003D2063F4F4009384070063C4040063F8B402C8
S31520003D309307C0002320F500130500008320C1014E
S31520003D400324810183244101032901018329C10020
S31520003D50032A810013010102678000001309050070
S31520003D609729000093898905EF00D00F83A70900C2
S31520003D7013840700631204089385040013050900C1
S31520003D80EFF09FEE9307F0FF130405006314F5127E
S31520003D9003A40900930704006394070E630204102A
S31520003DA0032A04009305000013050900330A440181
S31520003DB0EF1080146316AA0E83270400130509004A
S31520003DC0B384F44093850400EFF01FEA9307F0FFD5
S31520003DD06308F50C83270400B38797002320F4009B
S31520003DE083A7090003A747006312070A9727000045
S31520003DF023A607FC6F00400383260400B386964063
S31520003E0063CA06061307B000637AD70423209400FA
S31520003E10330794006390870423A0E9008327440096
S31520003E202320D7002322F70013050900EF00D00333
S31520003E301305B40093074400137585FF3307F54037
S31520003E40E30E07EE3304E400B387A7402320F400F3
S31520003E506FF0DFEE23A2E7006FF05FFC032744003C
S31520003E606396870023A0E9006FF01FFC23A2E700DA
S31520003E706FF09FFB93070400032444006FF09FEF2D
S31520003E801384070083A747006FF01FF113870700ED
S31520003E9083A74700E39C87FE232207006FF0DFF805
S31520003EA09307C0002320F90013050900EF00C07B0B
S31520003EB06FF09FE8232095006FF01FF7130101FD97
S31520003EC0232E310183A705019309070003A7850047
S31520003ED02324810223202103232861012326710123
S31520003EE02326110223229102232C4101232A510148
S31520003EF0130B05001384050013090600938B060097
S31520003F0063D4E700930707002320F900034734040E
S31520003F1063060700938717002320F90083270400F0
S31520003F2093F70702638807008327090093872700F2
S31520003F302320F9008324040093F46400639E040084
S31520003F40130A9401930AF0FF8327C400032709006C
S31520003F50B387E74063C4F408832704008346340408
S31520003F6093F70702B336D0006392070C1306340486
S31520003F7093850B0013050B00E78009009307F0FFDC
S31520003F80630AF50683270400130740009304000004
S31520003F9093F76700639EE700832709008324C40004
S31520003FA0B384F44093C7F4FF93D7F741B3F4F400F6
S31520003FB083278400032704016356F700B387E7406D
S31520003FC0B384F400130900001304A401130AF0FFBC
S31520003FD063902409130500006F0000029306100069
S31520003FE013060A0093850B0013050B00E7800900D2
S31520003FF0631A55031305F0FF8320C10203248102AF
S3152000400083244102032901028329C101032A810154
S31520004010832A4101032B0101832BC10013010103D4
S3152000402067800000938414006FF01FF23307D400DA
S3152000403013060003A301C7040347540493871600FD
S31520004040B307F40093862600A381E7046FF01FF2DE
S31520004050930610001306040093850B0013050B002E
S31520004060E7800900E30845F9130919006FF05FF6A8
S31520004070130101FC232C8102232A910223244103CC
S3152000408023225103232E1102232821032326310321
S3152000409083C785019384060093068007130A0500CB
S315200040A013840500930A060063E2F60293062006AF
S315200040B01386350463E0F602638607289305800598
S315200040C0972600009386C6A8638AB71C1309240482
S315200040D06F0040049386D7F993F6F60F93055001A7
S315200040E0E3E6D5FE97250000938505A9939626003D
S315200040F0B386B60083A60600B386B60067800600A0
S3152000410083270700130924049386470083A7070003
S315200041102320D7002301F404930710006F004026C4
S31520004120832704000325070093F607089305450017
S3152000413063860602832705002320B70063D807007D
S315200041401307D002B307F040A301E404972600002A
S31520004150938606A01307A0006F00800693F6070437
S31520004160832705002320B700E38A06FC93970701DF
S3152000417093D707416FF09FFC832504008326070011
S3152000418013F5050883A7060093864600631A0500E3
S3152000419093F50504638605009397070193D70701D6
S315200041A02320D700834684011307F0066396E6147E
S315200041B0972600009386C69913078000A30104045E
S315200041C0832544002324B40063CE05000325040080
S315200041D0B3E5B700130906001375B5FF2320A40025
S315200041E06384050213090600B3F5E7021309F9FFF4
S315200041F0B385B60083C505002300B9009385070063
S31520004200B3D7E702E3F2E5FE930780006314F702D3
S315200042108327040093F71700638E070003274400C3
S315200042208327040163C8E70093070003A30FF9FE61
S315200042301309F9FF330626412328C40013870400F7
S3152000424093860A001306C1019305040013050A008C
S31520004250EFF0DFC69309F0FF631A35131305F0FF5D
S315200042608320C103032481038324410303290103FB
S315200042708329C102032A8102832A410213010104F0
S31520004280678000008327040093E707022320F400B9
S3152000429093078007972600009386C68CA302F40412
S315200042A0832504000325070013F805088327050046
S315200042B013054500631A080013F805046306080071
S315200042C09397070193D707012320A70013F715001B
S315200042D06306070093E505022320B40063860700E2
S315200042E0130700016FF09FED032704001377F7FDF6
S315200042F02320E4006FF0DFFE972600009386468594
S315200043001307A0006FF09FEB832604008327070086
S315200043108325440113F8060813854700630A08001D
S315200043202320A70083A7070023A0B7006F008001E2
S315200043302320A70093F6060483A70700E38606FE3C
S315200043402390B70023280400130906006FF01FEFFF
S315200043508327070003264400930500009386470021
S315200043602320D70003A9070013050900EF00902C8E
S3152000437063060500330525412322A4008327440034
S315200043802328F400A30104046FF05FEB83260401C5
S315200043901306090093850A0013050A00E780040026
S315200043A0E30E35EB8327040093F727006396070473
S315200043B08327C1010325C400E354F5EA13850700CA
S315200043C06FF01FEA9306100093850A0013050A0072
S315200043D02326C100E7800400E30235E90326C10055
S315200043E0130919008327C4000327C101B387E740B7
S315200043F0E34AF9FC6FF0DFFB130900001306940172
S315200044006FF05FFE8397C500130101FE232C810008
S31520004410232A9100232E11002328210113F7870038
S3152000442093040500138405006312071203A74500B1
S315200044306346E00003A705046356E0100327C40281
S315200044406302071003A904009396370123A00400F2
S3152000445063DC060A032644058357C40093F7470006
S31520004460638E0700832744003306F64083274403E0
S3152000447063860700832704043306F6408327C40295
S31520004480832504029306000013850400E7800700B5
S315200044901307F0FF8317C4006312E50283A6040006
S315200044A01307D001636CD70E370740201307170078
S315200044B03357D700137717006302070E032704012B
S315200044C0232204002320E40013973701635C0700AE
S315200044D09307F0FF6316F50083A704006394070093
S315200044E0232AA4048325440323A02401638C0504E2
S315200044F0930744046386F50013850400EFF04F9C70
S31520004500232A04026F0000048325040213060000F8
S315200045109306100013850400E70007009307F0FFB9
S3152000452013060500E31AF5F283A70400E38607F2D3
S31520004530138737FE630607009387A7FE639E07044B
S3152000454023A02401130500006F00000603A6050121
S31520004550E30A06FE83A6050093F7370023A0C500CD
S315200045603389C640130700006394070003A745015B
S315200045702324E400E35820FD8327840283250402B4
S3152000458093060900138504002326C100E78007004F
S315200045900326C1006346A0028357C40093E707049D
S315200045A02316F4001305F0FF8320C10103248101A3
S315200045B083244101032901011301010267800000C0
S315200045C03306A6003309A9406FF0DFFA83A7050159
S315200045D0638E0704130101FE232C8100232E110074
S315200045E013040500630C0500832705026398070062
S315200045F02326B100EFE09FA68325C1008397C5003F
S31520004600638C070013050400032481018320C10164
S31520004610130101026FF01FDF8320C10103248101F2
S315200046201305000013010102678000001305000036
S315200046306780000093050500631005021716000029
S315200046401306C65C97050000938585F817150000AC
S315200046501305855C6FE09FA617150000032585606E
S315200046606FF0DFF66780000067800000130101FF0E
S3152000467023248100138405008395E5002326110059
S31520004680EF0090026340050283274405B387A70005
S31520004690232AF4048320C10003248100130101018D
S315200046A0678000008357C40037F7FFFF1307F7FF23
S315200046B0B3F7E7002316F4006FF0DFFD13050000C3
S315200046C06780000083D7C500130101FE232C8100DB
S315200046D0232A91002328210123263101232E11008C
S315200046E093F70710930405001384050013090600A9
S315200046F093890600638A07008395E50093062000C8
S3152000470013060000EF0040758357C40037F7FFFFFC
S315200047101307F7FFB3F7E7008315E4002316F40029
S31520004720032481018320C101938609001306090011
S315200047308329C10003290101138504008324410133
S31520004740130101026F00C07F130101FF23248100A2
S31520004750138405008395E50023261100EF00C06F22
S315200047601307F0FF8317C4006312E50213070580C1
S3152000477013070780B3F7E7002316F4008320C10050
S315200047800324810013010101678000003717000010
S31520004790B3E7E7002316F400232AA4046FF01FFED4
S315200047A08395E5006F00C07E130101FE232C810056
S315200047B0232A910023263101232E110023282101AB
S315200047C09304050093890500130406006308050079
S315200047D08327050263940700EFE05F88832784011F
S315200047E02324F4008357C40093F7870063860700C9
S315200047F083270401639C07029305040013850400A4
S31520004800EF00800B630405021309F0FF8320C1012A
S3152000481003248101832441018329C1001305090052
S315200048200329010113010102678000008327040187
S31520004830032504003305F54083274401634AF50028
S315200048409305040013850400EFF05FD8E31E05FAF4
S31520004850832784001305150013F9F90F9387F7FFB3
S315200048602324F40083270400138717002320E40061
S315200048702380370183274401638CA7008357C40014
S3152000488093F71700E38407F8930769FFE39007F887
S315200048909305040013850400EFF05FD3E30805F6C3
S315200048A06FF09FF613860500930505001715000087
S315200048B00325453B6FF05FEF130101FF2322910093
S315200048C093040500171500000325C539232481000C
S315200048D0232611001384050063080500832705029B
S315200048E063940700EFE08FF78317C40013F7870060
S315200048F06312070613F70701631E070013079000CC
S3152000490023A0E40093E707042316F4001305F0FF21
S315200049106F00800913F74700630A070283254403C3
S31520004920638C0500930744046386F5001385040011
S31520004930EFE01FD9232A04028357C400032704016A
S315200049402322040093F7B7FD2320E40093E7870092
S315200049502316F40083270401639007028327C400EB
S315200049601307002093F707286388E70093050400C0
S3152000497013850400EFE0DF878317C40013F71700C1
S31520004980630E070203274401232404003307E04073
S31520004990232CE400032704011305000063160700F7
S315200049A013F70708E31007F68320C10003248100CC
S315200049B083244100130101016780000013F72700BB
S315200049C09306000063140700832644012324D400A1
S315200049D06FF05FFC832786006396070413050000AB
S315200049E067800000130500008320C1030324810390
S315200049F083244103032901038329C102032A810257
S31520004A00832A4102032B0102832BC101032C81013E
S31520004A10832C4101032D0101832DC10013010104C3
S31520004A206780000083D7C500130101FC232C810277
S31520004A302326310323225103232E1102232A9102F6
S31520004A40232821032324410323206103232E7101DC
S31520004A50232C8101232A91012328A1012326B10198
S31520004A6093F78700930A060013840500930905002F
S31520004A706382070E83A70501638E070C8317C40084
S31520004A8003AA0A0013F72700631C071293F71700DF
S31520004A90638C071C930B000013050000130B00000A
S31520004AA01309000063060932631205021306090082
S31520004AB09305A00013050B00EF00C037930B1900D8
S31520004AC06306050013051500B30B6541138C0B0017
S31520004AD063747901130C090083264401832484001E
S31520004AE00325040083270401B384960063FCA72EC4
S31520004AF063DA842F93050B0013860400EF00C04D64
S31520004B00832704009305040013850900B3879700C3
S31520004B102320F400EFF09FAB63100514B38B9B406A
S31520004B2013051000639A0B009305040013850900F2
S31520004B30EFF0DFA96312051283A78A00B387974097
S31520004B4023A4FA00E38007EA330B9B00330999403C
S31520004B506FF05FF59305040013850900EFF0DFD5AC
S31520004B60E30E05F01305F0FF6FF01FE803290A0096
S31520004B7083244A00130A8A00E38A04FE93860400EB
S31520004B8063769B00B7060080938606C0832784023F
S31520004B90832504021306090013850900E780070010
S31520004BA0635CA00A83A78A00B387A74023A4FA00E0
S31520004BB0E38A07E23309A900B384A4406FF0DFFB40
S31520004BC0370B00801309000093040000130B0BC061
S31520004BD06FF09FFA032B0A0083244A00130A8A00E7
S31520004BE0E38A04FE8317C400032D840003250400F2
S31520004BF013F7072063080714930D0D0063ECA41325
S31520004C0013F70748630C071203294401832504017F
S31520004C1033098903B30DB54013871D003307970069
S31520004C2033499903130609006376E900130907003F
S31520004C301306070093F707406388070C93050600C1
S31520004C4013850900EFF00F8B130D0500631C050279
S31520004C509307C00023A0F9008357C40093E70704F5
S31520004C602316F4006FF01FF0B70B0080130B000023
S31520004C7093040000938BFBFF130C3000930C200051
S31520004C806FF01FF68325040113860D00EFE01FA1A8
S31520004C908357C40093F7F7B793E707082316F40062
S31520004CA02328A401232A2401330DBD013309B94148
S31520004CB02320A40123242401138D04001389040036
S31520004CC0938D04000325040013860D0093050B0025
S31520004CD0EF00803083278400B387A7412324F40084
S31520004CE083270400B387B7012320F40083A78A0013
S31520004CF0B387274123A4FA00E38607CE330B2B0183
S31520004D00B38424416FF0DFED13850900EF00803076
S31520004D10130D0500E31605F8832504011385090004
S31520004D20EFE01F9A8357C40093F7F7F72316F40092
S31520004D306FF01FF2138D04006FF05FF813890400E3
S31520004D406FF05FF88327040163E6A70083264401FA
S31520004D5063F6D40413090D0063F4A4011389040037
S31520004D601306090093050B00EF0000278327840014
S31520004D7003270400B3872741330727012324F400A0
S31520004D802320E400E39407F6930504001385090025
S31520004D90EFF0DF83E30C05F46FF01FEC938704003C
S31520004DA063F49B0093870B00B3C7D70203278402C3
S31520004DB08325040213060B0013850900B386D70248
S31520004DC0E700070013090500E342A0F26FF0DFE8D1
S31520004DD0032B0A0003294A0013050000130A8A0040
S31520004DE06FF05FCC6342DC028327840283250402B2
S31520004DF013060B0013850900E780070093040500BE
S31520004E00E34EA0D06FF05FE513060C0093050B0070
S31520004E10EF00801C8327840093040C00B38787410E
S31520004E202324F40083270400B38787012320F4007A
S31520004E306FF0DFCE93F5F50F3306C5006316C50078
S31520004E40130500006780000083470500E38CB7FE4A
S31520004E50130515006FF09FFE130101FF2324810027
S31520004E601304050013850500930506001386060026
S31520004E709717000023A007F423261100EFD0CFAB0D
S31520004E809307F0FF631AF5009717000083A787F2B0
S31520004E90638407002320F4008320C10003248100BB
S31520004EA01301010167800000130101FF2324810003
S31520004EB013040500138505009305060013860600D6
S31520004EC09717000023A807EE23261100EFD04FB333
S31520004ED09307F0FF631AF5009717000083A787ED65
S31520004EE0638407002320F4008320C100032481006B
S31520004EF01301010167800000130101FF23248100B3
S31520004F0013040500138505009717000023A407EA5C
S31520004F1023261100EFC09FE39307F0FF631AF500E5
S31520004F209717000083A707E9638407002320F4006E
S31520004F308320C10003248100130101016780000042
S31520004F40130101FF232481001304050013850500A6
S31520004F5093050600138606009717000023AC07E486
S31520004F6023261100EFD04FA39307F0FF631AF50015
S31520004F709717000083A707E4638407002320F40023
S31520004F808320C100032481001301010167800000F2
S31520004F90130101FF23248100130405001385050056
S31520004FA09717000023A807E023261100EFD00F8FC4
S31520004FB09307F0FF631AF5009717000083A787DF92
S31520004FC0638407002320F4008320C100032481008A
S31520004FD01301010167800000630C0602130305001C
S31520004FE093061000636AB5009306F0FF1307F6FFD9
S31520004FF03303E300B385E5008383050023007300B4
S315200050001306F6FF3303D300B385D500E31606FE59
S315200050106780000063960500930506006FE09FCD2C
S31520005020130101FE232C810023244101232E11008C
S31520005030232A910023282101232631011304060067
S31520005040130A050063180602EFE08FE793040000B9
S315200050508320C10103248101032901018329C10081
S31520005060032A8100138504008324410113010102D0
S315200050706780000093840500EF0080051309050072
S315200050806366850093571500E3E487FC93050400C7
S3152000509013050A00EFE01FC69309050063160500F5
S315200050A0938409006FF0DFFA130604006374890005
S315200050B0130609009385040013850900EFE00FDE2F
S315200050C09385040013050A00EFE08FDF6FF05FFD84
S315200050D083A7C5FF1385C7FF63D80700B385A5003F
S315200050E083A705003305F500678000000102030A47
S315200050F00405060B0708090C0E000F0D20202020A2
S3152000510025732E2E2E20706173730A0020202020F6
S3152000511025732E2E2E206661696C2028696E636F9A
S31520005120727265637420616464726573733A2030A9
S31520005130782530386C58290A0000000041737369BD
S31520005140676E6D656E7420312E303A205041535370
S315200051500A00000041737369676E6D656E742031B5
S315200051602E303A204641494C0A0000004558544901
S315200051705F494E54454E5200455854495F52544556
S315200051804E520000455854495F4654454E52000041
S31520005190455854495F535749455652004558544936
S315200051A05F494E5446520000504649435F49454E9A
S315200051B0523100004146494F5F45585449435231C8
S315200051C0000000006C510020000401404012F969E3
S315200051D0785100200804014048415A6B8451002030
S315200051E00C0401405CDFDE219051002010040140B8
S315200051F05003BD6C9C51002014040140E4D740A309
S31520005200A851002000E100E04A1F8DB6B4510020CD
S3152000521008000140740EF5664750494F445F4346E7
S31520005220474C5220286D6F64652F636F6E666967E1
S31520005230290000004750494F445F434647485220C3
S31520005240286D6F64652F636F6E666967290000009D
S315200052504750494F455F4346474C522070696E3050
S3152000526020286D6F64652F636F6E6669672900005D
S315200052704750494F445F4F555444522062697473D6
S315200052805B333A305D202870756C6C2D75707329F0
S31520005290000000004750494F445F4F555444522068
S315200052A0626974735B373A345D2028726F7773298D
S315200052B0000000004750494F445F4F555444522048
S315200052C0626974735B31353A385D20284C454473E6
S315200052D0290000002020202025732E2E2E206661F6
S315200052E0696C2028676F742030782530386C5829EF
S315200052F00A00000041737369676E6D656E74203114
S315200053002E313A20504153530A00000041737369ED
S31520005310676E6D656E7420312E313A204641494CB8
S315200053200A0000002020202053544B5F434D50207C
S3152000533028636F6D706172652076616C7565292EA4
S315200053402E2E2070617373002020202053544B5F33
S31520005350434D502028636F6D706172652076616CB5
S315200053607565292E2E2E2070617373202877617221
S315200053706E696E673A206F6666206279206F6E6569
S31520005380202D2064696420796F7520666F726765A9
S315200053907420746F20737562747261637420313F58
S315200053A0290000002020202053544B5F434D5020DD
S315200053B028636F6D706172652076616C7565292E24
S315200053C02E2E206661696C2028676F742030782520
S315200053D030386C58290A00002020202053544B5F77
S315200053E043544C5220626974735B333A305D202EED
S315200053F02E2E2070617373002020202053544B5F83
S3152000540043544C5220626974735B333A305D202ECC
S315200054102E2E206661696C2028676F7420307825CF
S3152000542030386C58290A000041737369676E6D65C0
S315200054306E7420312E323A20504153530A00000018
S3152000544041737369676E6D656E7420312E323A2012
S315200054504641494C0A000000202020204750494F51
S31520005460455F4F55544452206269743020746F67EB
S31520005470676C652028302D3E31292E2E2E20706116
S3152000548073730000202020204750494F455F4F5519
S31520005490544452206269743020746F67676C6520AB
S315200054A028302D3E31292E2E2E206661696C20282B
S315200054B0676F742030782530386C58290A00000030
S315200054C02020202053544B5F535220636C65617219
S315200054D065642061667465722068616E646C6572AD
S315200054E02E2E2E20706173730000000020202020B5
S315200054F053544B5F535220636C656172656420611F
